:10000000FE2F762F792F7C2F7F2F822F852F882F01
:060010008B2F8E2F912FB3
:100EDC00831603138601FF30831203138600972FAA
:100EEC00C03086000800F93086000800A430860067
:100EFC000800B03086000800993086000800923057
:100F0C0086000800823086000800F8308600080051
:100F1C00803086000800903086000800FF30860084
:100F2C0008007108003A03199C2F942F7008840054
:100F3C000A3004020318942F00308A000130040791
:100F4C0082000800C030831603138700F501F601F8
:100F5C000030F000F1006E2783120313871FD92F86
:100F6C000930750676040319C12F0130F5070318F3
:100F7C00F60A0030F6077608F1007508F0006E27C7
:100F8C008312031307140B30F4002630F3005D308A
:100F9C00F200F20BCF2FF30BCF2FF40BCF2FD62F5A
:100FAC00831203130710071FB22F75087604031959
:100FBC00E52FFF30F5070318F60AFF30F607760821
:100FCC00F1007508F0006E278312031387140B30A1
:100FDC00F4002630F3005D30F200F20BF32FF30B2C
:100FEC00F32FF40BF32FFA2F831203138710B22F66
:040FFC008301A82F96
:02400E007AFD39
:00000001FF
